{
  "contractName": "Voting",
  "abi": [
    {
      "inputs": [],
      "stateMutability": "nonpayable",
      "type": "constructor"
    },
    {
      "inputs": [
        {
          "internalType": "uint256",
          "name": "",
          "type": "uint256"
        }
      ],
      "name": "candidates",
      "outputs": [
        {
          "internalType": "uint256",
          "name": "id",
          "type": "uint256"
        },
        {
          "internalType": "uint256",
          "name": "voteCount",
          "type": "uint256"
        }
      ],
      "stateMutability": "view",
      "type": "function"
    },
    {
      "inputs": [
        {
          "internalType": "address",
          "name": "",
          "type": "address"
        }
      ],
      "name": "voters",
      "outputs": [
        {
          "internalType": "bool",
          "name": "",
          "type": "bool"
        }
      ],
      "stateMutability": "view",
      "type": "function"
    },
    {
      "inputs": [],
      "name": "votingEnd",
      "outputs": [
        {
          "internalType": "uint256",
          "name": "",
          "type": "uint256"
        }
      ],
      "stateMutability": "view",
      "type": "function"
    },
    {
      "inputs": [],
      "name": "votingStart",
      "outputs": [
        {
          "internalType": "uint256",
          "name": "",
          "type": "uint256"
        }
      ],
      "stateMutability": "view",
      "type": "function"
    },
    {
      "inputs": [
        {
          "internalType": "uint256",
          "name": "_candidateIndex",
          "type": "uint256"
        }
      ],
      "name": "vote",
      "outputs": [],
      "stateMutability": "nonpayable",
      "type": "function"
    },
    {
      "inputs": [],
      "name": "getAllVotesOfCandiates",
      "outputs": [
        {
          "components": [
            {
              "internalType": "uint256",
              "name": "id",
              "type": "uint256"
            },
            {
              "internalType": "uint256",
              "name": "voteCount",
              "type": "uint256"
            }
          ],
          "internalType": "struct Voting.Candidate[]",
          "name": "",
          "type": "tuple[]"
        }
      ],
      "stateMutability": "view",
      "type": "function"
    },
    {
      "inputs": [],
      "name": "getVotingStatus",
      "outputs": [
        {
          "internalType": "bool",
          "name": "",
          "type": "bool"
        }
      ],
      "stateMutability": "view",
      "type": "function"
    },
    {
      "inputs": [],
      "name": "getRemainingTime",
      "outputs": [
        {
          "internalType": "uint256",
          "name": "",
          "type": "uint256"
        }
      ],
      "stateMutability": "view",
      "type": "function"
    }
  ],
  "bytecode": "0x608060405234801562000010575f80fd5b505f5b600481101562000083575f60405180604001604052808381526020015f815250908060018154018082558091505060019003905f5260205f2090600202015f909190919091505f820151815f015560208201518160010155505080806200007a906200012b565b91505062000013565b505f3360015f6101000a81548173ffffffffffffffffffffffffffffffffffffffff021916908373ffffffffffffffffffffffffffffffffffffffff16021790555042600381905550603c81620000db919062000177565b42620000e89190620001c1565b60048190555050620001fb565b7f4e487b71000000000000000000000000000000000000000000000000000000005f52601160045260245ffd5b5f819050919050565b5f620001378262000122565b91507fffffffffffffffffffffffffffffffffffffffffffffffffffffffffffffffff82036200016c576200016b620000f5565b5b600182019050919050565b5f620001838262000122565b9150620001908362000122565b9250828202620001a08162000122565b91508282048414831517620001ba57620001b9620000f5565b5b5092915050565b5f620001cd8262000122565b9150620001da8362000122565b9250828201905080821115620001f557620001f4620000f5565b5b92915050565b61090480620002095f395ff3fe608060405234801561000f575f80fd5b5060043610610086575f3560e01c8063581c281c11610059578063581c281c1461011357806385a3863514610131578063a3ec138d1461014f578063efb98bcf1461017f57610086565b80630121b93f1461008a578063101158af146100a65780633477ee2e146100c45780634d6bda5f146100f5575b5f80fd5b6100a4600480360381019061009f919061047c565b61019d565b005b6100ae6102fc565b6040516100bb91906104b6565b60405180910390f35b6100de60048036038101906100d9919061047c565b610302565b6040516100ec9291906104cf565b60405180910390f35b6100fd610330565b60405161010a91906105da565b60405180910390f35b61011b61039e565b6040516101289190610614565b60405180910390f35b6101396103b7565b60405161014691906104b6565b60405180910390f35b61016960048036038101906101649190610687565b6103bd565b6040516101769190610614565b60405180910390f35b6101876103da565b60405161019491906104b6565b60405180910390f35b60025f3373ffffffffffffffffffffffffffffffffffffffff1673ffffffffffffffffffffffffffffffffffffffff1681526020019081526020015f205f9054906101000a900460ff1615610227576040517f08c379a000000000000000000000000000000000000000000000000000000000815260040161021e9061070c565b60405180910390fd5b5f80549050811061026d576040517f08c379a000000000000000000000000000000000000000000000000000000000815260040161026490610774565b60405180910390fd5b5f81815481106102805761027f610792565b5b905f5260205f2090600202016001015f81548092919061029f906107ec565b9190505550600160025f3373ffffffffffffffffffffffffffffffffffffffff1673ffffffffffffffffffffffffffffffffffffffff1681526020019081526020015f205f6101000a81548160ff02191690831515021790555050565b60035481565b5f8181548110610310575f80fd5b905f5260205f2090600202015f91509050805f0154908060010154905082565b60605f805480602002602001604051908101604052809291908181526020015f905b82821015610395578382905f5260205f2090600202016040518060400160405290815f820154815260200160018201548152505081526020019060010190610352565b50505050905090565b5f60035442101580156103b2575060045442105b905090565b60045481565b6002602052805f5260405f205f915054906101000a900460ff1681565b5f600354421015610420576040517f08c379a00000000000000000000000000000000000000000000000000000000081526004016104179061087d565b60405180910390fd5b6004544210610431575f9050610442565b4260045461043f919061089b565b90505b90565b5f80fd5b5f819050919050565b61045b81610449565b8114610465575f80fd5b50565b5f8135905061047681610452565b92915050565b5f6020828403121561049157610490610445565b5b5f61049e84828501610468565b91505092915050565b6104b081610449565b82525050565b5f6020820190506104c95f8301846104a7565b92915050565b5f6040820190506104e25f8301856104a7565b6104ef60208301846104a7565b9392505050565b5f81519050919050565b5f82825260208201905092915050565b5f819050602082019050919050565b61052881610449565b82525050565b604082015f8201516105425f85018261051f565b506020820151610555602085018261051f565b50505050565b5f610566838361052e565b60408301905092915050565b5f602082019050919050565b5f610588826104f6565b6105928185610500565b935061059d83610510565b805f5b838110156105cd5781516105b4888261055b565b97506105bf83610572565b9250506001810190506105a0565b5085935050505092915050565b5f6020820190508181035f8301526105f2818461057e565b905092915050565b5f8115159050919050565b61060e816105fa565b82525050565b5f6020820190506106275f830184610605565b92915050565b5f73ffffffffffffffffffffffffffffffffffffffff82169050919050565b5f6106568261062d565b9050919050565b6106668161064c565b8114610670575f80fd5b50565b5f813590506106818161065d565b92915050565b5f6020828403121561069c5761069b610445565b5b5f6106a984828501610673565b91505092915050565b5f82825260208201905092915050565b7f596f75206861766520616c726561647920766f7465642e0000000000000000005f82015250565b5f6106f66017836106b2565b9150610701826106c2565b602082019050919050565b5f6020820190508181035f830152610723816106ea565b9050919050565b7f496e76616c69642063616e64696461746520696e6465782e00000000000000005f82015250565b5f61075e6018836106b2565b91506107698261072a565b602082019050919050565b5f6020820190508181035f83015261078b81610752565b9050919050565b7f4e487b71000000000000000000000000000000000000000000000000000000005f52603260045260245ffd5b7f4e487b71000000000000000000000000000000000000000000000000000000005f52601160045260245ffd5b5f6107f682610449565b91507fffffffffffffffffffffffffffffffffffffffffffffffffffffffffffffffff8203610828576108276107bf565b5b600182019050919050565b7f566f74696e6720686173206e6f742073746172746564207965742e00000000005f82015250565b5f610867601b836106b2565b915061087282610833565b602082019050919050565b5f6020820190508181035f8301526108948161085b565b9050919050565b5f6108a582610449565b91506108b083610449565b92508282039050818111156108c8576108c76107bf565b5b9291505056fea2646970667358221220f02e7ca9b63e59f20211c287c1005fe0be596bc53e77a7846ecf66d32979bc3064736f6c63430008150033",
  "immutableReferences": {},
  "source": "/// SPDX-License-Identifier: MIT\npragma solidity ^0.8.13;\n\ncontract Voting {\n    struct Candidate {\n        uint256 id;\n        uint256 voteCount;\n    }\n\n    Candidate[] public candidates;\n\n    address owner;\n    mapping(address => bool) public voters;\n\n    uint256 public votingStart;\n    uint256 public votingEnd;\n\n\nconstructor( ) {\n    for (uint256 i = 0; i < 4; i++) {\n        candidates.push(Candidate({\n            id: i,\n            voteCount: 0\n        }));\n    }\n    uint256 _durationInMinutes;\n    owner = msg.sender;\n    votingStart = block.timestamp;\n    votingEnd = block.timestamp + (_durationInMinutes * 1 minutes);\n}\n\n    modifier onlyOwner {\n        require(msg.sender == owner);\n        _;\n    }\n\n    function vote(uint256 _candidateIndex) public {\n        require(!voters[msg.sender], \"You have already voted.\");\n        require(_candidateIndex < candidates.length, \"Invalid candidate index.\");\n\n        candidates[_candidateIndex].voteCount++;\n        voters[msg.sender] = true;\n    }\n\n    function getAllVotesOfCandiates() public view returns (Candidate[] memory){\n        return candidates;\n    }\n\n    function getVotingStatus() public view returns (bool) {\n        return (block.timestamp >= votingStart && block.timestamp < votingEnd);\n    }\n\n    function getRemainingTime() public view returns (uint256) {\n        require(block.timestamp >= votingStart, \"Voting has not started yet.\");\n        if (block.timestamp >= votingEnd) {\n            return 0;\n    }\n        return votingEnd - block.timestamp;\n    }\n}",
  "sourcePath": "/home/hp/Desktop/FrostHack Blockchain/contracts/voting.sol",
  "compiler": {
    "name": "solc",
    "version": "0.8.21+commit.d9974bed.Emscripten.clang"
  },
  "schemaVersion": "3.4.16",
  "updatedAt": "2024-04-16T05:41:33.967Z",
  "devdoc": {
    "kind": "dev",
    "methods": {},
    "version": 1
  },
  "userdoc": {
    "kind": "user",
    "methods": {},
    "version": 1
  }
}